:100000000C94E0000C9408010C9408010C94080175
:100010000C9408010C9408010C9408010C9408013C
:100020000C9408010C9408010C9408010C9408012C
:100030000C9408010C9408010C9408010C9408011C
:100040000C94A1070C9408010C9411080C94EB0774
:100050000C9408010C9408010C9408010C940801FC
:100060000C9408010C94080100407A10F35A00A087
:10007000724E18090010A5D4E80000E87648170071
:1000800000E40B54020000CA9A3B000000E1F505B1
:10009000000080969800000040420F000000A086FB
:1000A00001000000102700000000E803000000002D
:1000B0006400000000000A000000000001000000D1
:1000C00000002C76D888DC674F0823DFC1DFAE59EB
:1000D000E1B1B796E5E3E453C63AE651997696E87E
:1000E000E6C28426EB898C9B62ED407C6FFCEFBC02
:1000F0009C9F40F2BAA56FA5F490055A2AF75C932D
:100100006B6CF9676DC11BFCE0E40D47FEF520E662
:10011000B500D0ED902E0300943577050080841E45
:10012000080000204E0A000000C80C333333330FA0
:10013000986E12831141EF8D2114893BE65516CF3D
:10014000FEE6DB18D1844B381BF77C1D901DA4BB49
:10015000E424203284725E228100C9F124ECA1E5FE
:100160003D2700000000240027002A0000000000B6
:10017000250028002B0000000008000201000003F9
:100180000407000000000000000000000000230041
:1001900026002900040404040404040402020202E8
:1001A000020203030303030301020408102040803A
:1001B0000102040810200102040810204308540C16
:1001C00011241FBECFEFD8E0DEBFCDBF13E0A0E00B
:1001D000B1E0E6E4F6E202C005900D92AC30B10762
:1001E000D9F723E0ACE0B3E001C01D92A03FB20715
:1001F000E1F710E0CFEDD0E004C02197FE010E94AE
:100200001E11CE3DD107C9F70E94BD080C941613EC
:100210000C940000CF92DF92EF92FF92CF938091E7
:10022000CD038C3009F44FC038F48B30F1F060E02E
:1002300070E080EC9FE741C085518230C0F7C091EB
:10024000C9036C2F70E0762F662766277F77809131
:10025000CA03682B90E080E00E94BE0E2DEC3CECBF
:100260004CEC5DE30E941F0F4AC06091C90370E02F
:1002700090E080E00E94BE0E6B017C01C091CA0339
:10028000C7FF0AC0AC019B0160E070E080E89FEB13
:100290000E9467106B017C01CF706C2F70E090E0C2
:1002A00080E00E94C00E2DEC3CEC4CEC5DE30E9423
:1002B0001F0FA70196010E946810CF91FF90EF9049
:1002C000DF90CF900895C091C9036C2F70E090E04B
:1002D00080E00E94BE0E6B017C016091CA036F70CA
:1002E00070E090E080E00E94C00E2DEC3CEC4CEC05
:1002F0005DE30E941F0FA70196010E946810C7FFCF
:10030000DCCF9058DACFCF92DF92EF92FF92CF936B
:10031000DF93B091CE03A0E08111AB2F8091CF038A
:1003200090E0880F991FAC0146575E4FC090D403F0
:10033000D090D503E090D603F090D70330E020E0D2
:10034000FA01C591D491E881B90190E080E0EB23F6
:10035000EA130AC02F5F3F4F6C157D058E059F0580
:1003600078F36FEF7FEFCB01DF91CF91FF90EF90AC
:10037000DF90CF90089590E0FC01EA58FE4F249161
:10038000FC01E855FE4F3491FC01EC56FE4FE49120
:10039000EE23C9F0222339F0233001F1A8F42130F3
:1003A00019F1223029F1F0E0EE0FFF1FE459FE4F62
:1003B000A591B4918FB7F894EC91611126C0309556
:1003C0003E233C938FBF08952730A9F02830C9F011
:1003D000243049F7809180008F7D03C08091800098
:1003E0008F7780938000DFCF84B58F7784BDDBCF9C
:1003F00084B58F7DFBCF8091B0008F778093B00064
:10040000D2CF8091B0008F7DF9CF3E2BDACFCF9342
:10041000DF9390E0FC01E855FE4F24918C569E4FEF
:10042000FC0184918823C9F090E0880F991FFC019A
:10043000EE59FE4FA591B491FC01E459FE4FC591D0
:10044000D49161110DC09FB7F8948C9120958223AF
:100450008C938881282328839FBFDF91CF910895B3
:10046000623051F49FB7F8943C91822F809583239A
:100470008C93E8812E2BEFCF8FB7F894EC912E2B35
:100480002C938FBFEACF8E3008F08E508770806437
:1004900080937C0080917A00806480937A008091C0
:1004A0007A0086FDFCCF80917800909179000895C4
:1004B0003FB7F89480910F0390911003A09111031E
:1004C000B091120326B5A89B05C02F3F19F00196E5
:1004D000A11DB11D3FBFBA2FA92F982F8827BC019E
:1004E000CD01620F711D811D911D42E0660F771FC6
:1004F000881F991F4A95D1F708958F929F92AF92C6
:10050000BF92CF92DF92EF92FF924B015C010E946B
:1005100058026B017C010E9458026C197D098E09FA
:100520009F09683E734081059105A8F321E0821A76
:100530009108A108B10888EEC80E83E0D81EE11C1E
:10054000F11C81149104A104B10429F7FF90EF90EC
:10055000DF90CF90BF90AF909F908F900895CF92F3
:10056000DF92EF92FF920F931F93CF93DF93CDB75C
:10057000DEB7C054D1400FB6F894DEBF0FBECDBF7A
:100580002FB7F8948091130390911403A091150351
:10059000B09116032FBF4091D0035091D1036091C9
:1005A000D2037091D3038C019D01041B150B260B04
:1005B000370BB901A801403D57406105710590F422
:1005C0008091D803C05CDE4F0FB6F894DEBF0FBE3B
:1005D000CDBFDF91CF911F910F91FF90EF90DF90F2
:1005E000CF9008958093D0039093D103A093D2032A
:1005F000B093D3031092CB031092CA031092C90395
:100600001092C8031092C70362E08091CC030E944D
:10061000070261E070E080E090E00E947D0261E00E
:100620008091CC030E94070260E08091CC030E947D
:10063000BB018091CD038551823020F58BE291E1A1
:100640000197F1F762E08091CC030E94070280914C
:10065000D90390E08230910538F0880F991F880FF8
:10066000991F05970197F1F7F89480E00E948301A4
:100670006F3F7F4F8F4F9F4F61F41092D803789454
:1006800080E0A0CF64E170E080E090E00E947D0215
:10069000D9CF81E00E9483016F3F7F4F8F4F9F4FE3
:1006A00061F38E010F5F1F4F6E018FEBC81A8EEF43
:1006B000D80A780180E00E948301F701608371838A
:1006C0008283938381E00E948301F70164837583B1
:1006D00086839783F8E0EF0EF11CEC14FD0451F7CC
:1006E000789430E020E0F801C080D180E280F3808F
:1006F0004481558166817781FFEFCF16DF06EF06D3
:10070000FF0631F04F3F8FEF58076807780719F45D
:100710001092D803B5CFF90183E0F595E7958A9556
:10072000E1F7E953FC4F8081880FC416D506E60631
:10073000F70610F180832F5F3F4F085F1F4F28326D
:10074000310589F64091CB032091C7038091C803FE
:10075000280F3327331F8091C903280F311D809143
:10076000CA03820F932F911D99274817190681F606
:1007700081E08093D80326CF8160DCCFCF92DF92D7
:10078000EF92FF920E94AF02882349F08091CD033F
:100790008B3028F08D3040F08551823030F160E0B0
:1007A00070E080EC9FE71CC06091C80370E090E0AF
:1007B00080E00E94C00E2DEC3CEC4CEC5DE30E940E
:1007C0001F0F6B017C016091C70370E090E080E037
:1007D0000E94C00E9B01AC01C701B6010E946810C7
:1007E000FF90EF90DF90CF9008956091C7037091D4
:1007F000C80376276727762790E080E00E94BE0E28
:100800002DEC3CEC4CEC5DE30E941F0FE9CFAF9266
:10081000BF92CF92DF92EF92FF920F931F93CF93ED
:10082000DF936C017B018B01040F151FEB015E014F
:10083000AE18BF08C017D10759F06991D601ED91E4
:10084000FC910190F081E02DC6010995892B79F783
:10085000C501DF91CF911F910F91FF90EF90DF9035
:10086000CF90BF90AF900895FC0144815581608185
:10087000718187E193E00C940704FC01538D448D52
:10088000252F30E0842F90E0821B930B541710F03B
:10089000CF96089501970895FC01918D828D981748
:1008A00061F0A28DAE0FBF2FB11D5D968C91928D20
:1008B0009F5F9F73928F90E008958FEF9FEF089551
:1008C000FC01918D828D981731F0828DE80FF11D1A
:1008D000858D90E008958FEF9FEF0895FC01918D35
:1008E000228D892F90E0805C9F4F821B91098F732E
:1008F0009927089587E193E00E946E0421E0892BF7
:1009000009F420E0822F089580E090E0892B29F0FF
:100910000E947A0481110C9400000895FC01A48DBA
:10092000A80FB92FB11DA35ABF4F2C91848D90E011
:1009300001968F739927848FA689B7892C93A089F4
:10094000B1898C91837080648C93938D848D98137E
:1009500006C00288F389E02D80818F7D8083089511
:10096000EF92FF920F931F93CF93DF93EC0181E0FF
:10097000888F9B8D8C8D98131AC0E889F9898081A6
:1009800085FF15C09FB7F894EE89FF896083E889D9
:10099000F98980818370806480839FBF81E090E0CB
:1009A000DF91CF911F910F91FF90EF900895F62E58
:1009B0000B8D10E00F5F1F4F0F731127E02E8C8DF2
:1009C0008E110CC00FB607FCFACFE889F989808137
:1009D00085FFF5CFCE010E948E04F1CFEB8DEC0F99
:1009E000FD2FF11DE35AFF4FF0829FB7F8940B8F54
:1009F000EA89FB8980818062CFCFCF93DF93EC01BE
:100A0000888D8823B9F0AA89BB89E889F9898C91F6
:100A100085FD03C0808186FD0DC00FB607FCF7CFB2
:100A20008C9185FFF2CF808185FFEDCFCE010E94B2
:100A30008E04E9CFDF91CF910895FC010190002051
:100A4000E9F73197AF01481B590BBC0187E193E0EF
:100A50000C9407048F929F92AF92BF920F931F93B3
:100A6000CF93DF93CDB7DEB7A1970FB6F894DEBF73
:100A70000FBECDBF19A2423008F44AE08E010F5DCF
:100A80001F4F842E912CB12CA12CA50194010E9402
:100A90003610E62FB901CA01EA30F4F4E05DD8015E
:100AA000EE938D01232B242B252B79F790E080E00A
:100AB000109719F0CD010E941D05A1960FB6F8946C
:100AC000DEBF0FBECDBFDF91CF911F910F91BF90C1
:100AD000AF909F908F900895E95CE1CFCF92DF9225
:100AE000EF92FF92CF93DF936B017C016DE287E180
:100AF00093E00E94B004EC0166277727CB016C19C4
:100B00007D098E099F094AE00E942A058C0F9D1FCE
:100B1000DF91CF91FF90EF90DF90CF900895CF932A
:100B2000DF93BC0190E080E04AE00E942A05EC01DE
:100B300088E191E00E941D058C0F9D1FDF91CF91F0
:100B40000895CF93DF930E941D05EC0188E191E0A9
:100B50000E941D058C0F9D1FDF91CF910895CF93AB
:100B6000DF930E943404EC0188E191E00E941D05AE
:100B70008C0F9D1FDF91CF9108958F929F92AF921E
:100B8000BF92CF92DF92EF92FF920F931F93CF937A
:100B9000DF93FC0101900020E9F731978F01081BDA
:100BA000190B7C01D0E0C0E0A9F430E020E081E046
:100BB000232B09F080E0DF91CF911F910F91FF90DF
:100BC000EF90DF90CF90BF90AF909F908F9008955F
:100BD000C1E0D0E02FB7F8948091130390911403F3
:100BE000A0911503B09116032FBF80931F0390931C
:100BF0002003A0932103B093220387E193E00E9496
:100C00004C0497FF54C02FB7F89480911303909130
:100C10001403A0911503B09116032FBF40911F0339
:100C2000509120036091210370912203841B950B46
:100C3000A60BB70B40911B0350911C0360911D0341
:100C400070911E0384179507A607B707B0F22FEF20
:100C50003FEFADCF209709F4BDCF4F01AE012197F3
:100C6000D4012E914D01022E000C330B28173907A9
:100C700019F0209799F7AECF209709F4A9CFB701C3
:100C80006F01CC1ADD0A30E020E0DB01AD90BD0140
:100C9000D601BD906D01AB1005C02F5F3F4F2C17E3
:100CA0003D0798F3C217D307C9F6EA0193CFF701BE
:100CB000EC0FFD1F2081022E000C330B2817390783
:100CC00049F621960C171D0709F084CF6ECFAF921D
:100CD000BF92CF92DF92EF92FF920F931F93CF9329
:100CE000DF93DC01CD90DC901197C114D10439F071
:100CF0001496CD91DC918C017601209761F4DF91FF
:100D0000CF911F910F91FF90EF90DF90CF90BF9008
:100D1000AF90089575015701BFEFAB1ABB0AF701F9
:100D20008081082E000C990B0E94B50E892B91F73B
:100D30002197CC0DDD1D8881082E000C990B0E9497
:100D4000B50E892B29F0CE15DF0510F02197F3CFD2
:100D5000AE014F5F5F4F4E195F09D80115965C9346
:100D60004E931497CE14DF0420F4B701C6010E94FD
:100D70000613D801ED91FC91119714968D919C91D9
:100D8000E80FF91F1082BBCF0F931F93CF93DF9310
:100D9000EC0188819981009759F02A813B812617BF
:100DA000370730F081E0DF91CF911F910F910895C7
:100DB0008B016F5F7F4F0E944912009759F0998312
:100DC00088831B830A832C813D81232B59F7FC01E7
:100DD0001082E8CF80E0E7CFEF92FF920F931F934E
:100DE000CF93DF936115710541F480E0DF91CF91DE
:100DF0001F910F91FF90EF90089541155105B1F0AB
:100E00007B01EC010C811D81040F151FB8010E94AC
:100E1000C406882351F3288139818C819D81B701D3
:100E2000820F931F0E940F131D830C8381E0DECF7E
:100E3000FB0101900020E9F73197AF01461B570BEA
:100E40000C94EC06CF93DF93EC0188819981009795
:100E500011F00E94C011198218821D821C821B820F
:100E60001A82DF91CF910895EF92FF920F931F9313
:100E7000CF93DF93EC018617970781F0FB01008188
:100E800011810115110539F0E480F580B7010E9448
:100E9000C40681110BC0CE010E942207CE01DF9152
:100EA000CF911F910F91FF90EF900895FD82EC82FA
:100EB000B801888199810E940F13F0CFEF92FF92C1
:100EC0000F931F93CF93DF93EC01198218821B823B
:100ED0001A821D821C826115710521F18B01FB01B3
:100EE00001900020E9F731977F01E61AF70AB70170
:100EF0000E94C406811109C0CE01DF91CF911F91DC
:100F00000F91FF90EF900C942207FD82EC82B801C4
:100F100088819981DF91CF911F910F91FF90EF9080
:100F20000C940F13DF91CF911F910F91FF90EF90D1
:100F30000895FC0180819181009711F00C94C011FB
:100F400008951F920F920FB60F9211242F933F9383
:100F50008F939F93AF93BF9380911303909114034A
:100F6000A0911503B091160330910E0323E0230FD7
:100F70002D3758F50196A11DB11D20930E038093C6
:100F8000130390931403A0931503B0931603809159
:100F90000F0390911003A0911103B09112030196D9
:100FA000A11DB11D80930F0390931003A093110313
:100FB000B0931203BF91AF919F918F913F912F9169
:100FC0000F900FBE0F901F90189526E8230F0296E2
:100FD000A11DB11DD2CF1F920F920FB60F921124F7
:100FE0002F933F934F935F936F937F938F939F9331
:100FF000AF93BF93EF93FF9387E193E00E948E043A
:10100000FF91EF91BF91AF919F918F917F916F91E0
:101010005F914F913F912F910F900FBE0F901F90B6
:1010200018951F920F920FB60F9211242F938F9342
:101030009F93EF93FF93E0912703F0912803808122
:10104000E0912D03F0912E0382FD1BC090818091D1
:1010500030038F5F8F7320913103821741F0E0914D
:101060003003F0E0E95EFC4F958F80933003FF91F1
:10107000EF919F918F912F910F900FBE0F901F9026
:1010800018958081F4CFE7E1F3E01382128288EEB5
:1010900093E0A0E0B0E084839583A683B7838AE0E1
:1010A00091E09183808385EC90E09587848784EC40
:1010B00090E09787868780EC90E0918B808B81EC25
:1010C00090E0938B828B82EC90E0958B848B86EC06
:1010D00090E0978B868B118E128E138E148E6BE19F
:1010E00071E086EE93E00E945E0764E471E080EEBA
:1010F00093E00E945E076DE671E08AED93E00E9446
:101100005E07A7ECB3E081E015968C93159786E116
:1011100016968C931697E9EAF1E0E4911796EC9312
:101120001797E5E9F1E0E4911896EC93189740E8F9
:101130005EE360E070E01D964D935D936D937C934C
:101140005097A4EBB3E092E015969C9315971696F2
:101150008C931697EAEAF1E0E4911796EC931797CF
:10116000E6E9F1E0E4911896EC9318971D964D93FB
:101170005D936D937C9350970895CF93DF93CDB794
:10118000DEB7EE970FB6F894DEBF0FBECDBF7894F2
:1011900084B5826084BD84B5816084BD85B582607C
:1011A00085BD85B5816085BD80916E00816080932D
:1011B0006E00109281008091810082608093810096
:1011C00080918100816080938100809180008160A6
:1011D000809380008091B10084608093B100809101
:1011E000B00081608093B00080917A008460809329
:1011F0007A0080917A00826080937A0080917A00F0
:10120000816080937A0080917A00806880937A0070
:101210001092C10061E083E00E94070260E080E17B
:101220000E94070262E08091CC030E9407022FB760
:10123000F8948091130390911403A0911503B09139
:1012400016032FBF805D9740A109B1098093D00399
:101250009093D103A093D203B093D30387E38093F9
:10126000D903E0912703F091280382E08083E09185
:101270002303F09124031082E0912503F0912603CB
:1012800080E1808310922F03E0912B03F0912C03D7
:1012900086E08083E0912903F0912A0380818061B8
:1012A0008083E0912903F0912A0380818860808304
:1012B000E0912903F0912A03808180688083E09186
:1012C0002903F0912A0380818F7D808388EB9BE046
:1012D000A0E0B0E080931B0390931C03A0931D0338
:1012E000B0931E0386E991E00E94A10560ED77E0CE
:1012F00080E090E00E947D028AE991E00E94BD05B5
:10130000882309F4ACC28DE991E00E94A10560ED4B
:1013100077E080E090E00E947D0269EA71E0CE0112
:1013200001960E945E0764EB71E0CE0101960E9477
:1013300018076AE672E0CE0101960E9418076BEB6F
:1013400071E0CE0101960E9418076CE672E0CE01B2
:1013500001960E941807CE0101960E94AF0560E138
:1013600077E280E090E00E947D028AE991E00E94AD
:10137000BD05F82ECE0101960E94990789EC91E0F7
:10138000FF2009F46EC220E0222E20E0322E8EE0F3
:101390000E9443029C01ACE9BFEF0E940F112FEFA6
:1013A00033E040E050E00E94E00F49015A0184E63A
:1013B000880E911CA11CB11C740188EF91E00E9461
:1013C0001D05B7FE51C2C501B4010E946E0588E13A
:1013D00091E00E941D0561E08CECE81681E0F806C2
:1013E0000CF460E085E00E94BB0180E10E944302B2
:1013F000BC01990F880B990B0E94C00E20E030E0D1
:1014000040EA50E40E941F0F20E030E048EC52E434
:101410000E941F0F20E030E040E85AE30E941F0FB7
:101420000E94D41070930D0360930C03072E000CE0
:10143000880B990B97FF1EC20E946E0587E092E011
:101440000E94A1056CE271E080E090E00E947D02C4
:1014500080910C0390910D0361E0873E91050CF49F
:1014600060E083E00E94BB018CE092E00E94A10555
:101470000E94BE036FAB78AF89AF9AAF0E94AF02F4
:10148000C12CD12C90ECE92E9FE7F92E882321F076
:101490000E940A016B017C010E94BE036BAF7CAF0E
:1014A0008DAF9EAF0E94AF02882309F4E7C10E946E
:1014B0000A012B013C012FA938AD49AD5AADCA0133
:1014C000B9010E940A11811108C0A7019601C70144
:1014D000B6010E940A11882321F088E192E00E945F
:1014E000A1052BAD3CAD4DAD5EADCA01B9010E9469
:1014F0000A11811108C0A3019201C301B2010E9427
:101500000A11882321F089E392E00E94A10568EE88
:1015100073E080E090E00E947D028E010F5E1F4F1D
:1015200023E048E0C701B6010E94600CBC01CE0177
:10153000C1960E945E071A8619861C861B861E8627
:101540001D86BE016F5C7F4FCE0109960E94340755
:101550006AE572E0CE0101960E945E076EE672E0D7
:10156000CE0101960E9418076EE772E0CE01019647
:101570000E941807CE0101960E94AF0568E873E14A
:1015800080E090E00E947D0283E892E00E94BD0529
:10159000811131C0CE0109960E94670666EE73E0A4
:1015A000CE0101960E9434074D855E8569857A8556
:1015B000CE0101960E94EC0668E171E0CE01019631
:1015C0000E94180789E892E00E941D058D819E8186
:1015D0000E948F0568E873E180E090E00E947D0240
:1015E00085E992E00E94BD05882309F44EC1CE0131
:1015F00001960E943404CE0101960E949907CE0103
:1016000009960E94990768E273E280E090E00E94E8
:101610007D028E01075F1F4F22E048E06FA978AD81
:1016200089AD9AAD0E94600CBC01CE018B960E94E0
:101630005E071A8E198E1C8E1B8E1E8E1D8EBE018D
:10164000655D7F4FCE0149960E9434076AE572E0DE
:10165000CE0101960E945E076EE672E0CE01019611
:101660000E9418076EE772E0CE0101960E941807EB
:10167000CE0101960E94AF0568E873E180E090E03A
:101680000E947D0283E892E00E94BD05811135C071
:10169000CE0149960E94670660EE73E0CE01019686
:1016A0000E9434074D8D5E8D698D7A8DCE01019635
:1016B0000E94EC0668E171E0CE0101960E941807D5
:1016C00089E892E00E941D058D819E810E948F0510
:1016D00068E873E180E090E00E947D0285E992E095
:1016E0000E94BD05882309F4D5C0CE0101960E9451
:1016F000340483EA92E00E94A105CE0101960E9483
:101700009907CE0149960E94990768E273E280E04A
:1017100090E00E947D0286EB92E00E94A105B40158
:10172000990C880B990B0E94C00E8E010F5F1F4F02
:1017300022E048E00E94600CBC01CE0185960E9428
:101740005E0718A21F8E1AA219A21CA21BA2BE011C
:101750006B5D7F4FCE014F960E9434076AE572E0C1
:10176000CE0149960E945E076EE672E0CE01499670
:101770000E9418076EE772E0CE0149960E94180792
:10178000CE0149960E94AF0568E873E180E090E0E1
:101790000E947D0283E892E00E94BD05811135C060
:1017A000CE014F960E9467066AED73E0CE0149961E
:1017B0000E9434074BA15CA16F8D78A1CE014996A0
:1017C0000E94EC0668E171E0CE0149960E9418077C
:1017D00089E892E00E941D058D8D9E8D0E948F05E7
:1017E00068E873E180E090E00E947D0285E992E084
:1017F0000E94BD05882309F452C0CE0149960E947B
:10180000340480ED92E00E94A105CE0149960E9429
:101810009907CE014F960E94990768E273E280E033
:1018200090E00E947D0289EE92E00E94A105CE0127
:1018300085960E949907CE018B960E949907CE014A
:10184000C1960E9499072114310409F4A0CD0E9489
:101850007A04882309F49BCD0E94000098CD80EE85
:1018600091E00E94A1058FCD4AE0C501B4010E941C
:101870002A05ADCD4AE00E942A05E0CD412C512C2D
:1018800080EC682E8FE7782E16CE87E992E00E94D2
:10189000A105B1CE87E992E00E94A1052ACF87E990
:1018A00092E00E94A105ADCF8AED93E00E949907D6
:1018B00080EE93E00E94990786EE93E00C949907DE
:1018C000EF920F931F93CF93DF93E80134E047FD2E
:1018D00034E1042E000C550B57FF03C05195419580
:1018E0005109E32E022F242FAE010E947E0CCE015F
:1018F000DF91CF911F910F91EF900895A9E0B0E093
:10190000E4E8FCE00C9405106A01F22EB02E102FD2
:10191000FBE3AF2EA01608F41BE31F5F012F27E0A7
:10192000AE014F5F5F4F0E94DD0DBC018981982F92
:101930009970913009F43FC09BE2E1FC04C09E2DF8
:101940009170E0FC3AC05E2D5071E82FE87083FF83
:1019500046C084E0911101C083E0EF2DE81B8F1594
:1019600008F0E0E0D6018E2F20E2552351F19923B3
:1019700029F0D6019C93C60101966C0196012D5F5A
:101980003F4FE2FE24C08EE4D6018C9391E4119681
:101990009C93119712968C93D9018E2F90E281110E
:1019A0001BC0E20FF32FF11D10828EEF9FEF2996DF
:1019B000ECE00C9421109DE2C6CF90E2C4CF2D93B1
:1019C00081508111FCCFCE0ED11CE0E0D0CF8EE64D
:1019D000D6018C9391E6DBCF9D938150E0CF482FC9
:1019E000447082FF3DC084E0911101C083E08F15F7
:1019F00010F4EF2DE81BD6018E2F20E2552309F1BC
:101A0000992329F0D6019C93C60101966C01960199
:101A10002D5F3F4FE2FE1BC089E4D6018C938EE41C
:101A200011968C93119786E412968C93D9018E2F80
:101A300090E2882309F4B5CF9D938150FACF2D937E
:101A400081508111FCCFCE0ED11CE0E0D9CF89E6C8
:101A5000D6018C938EE611968C93119786E6E4CF8F
:101A60009B0177FF02C030E020E0A1E0B0E09111DF
:101A700002C0B0E0A0E0F9013196AE0FBF1F8B2C81
:101A8000912CBB2009F461C05401EFEFAE1ABE0ADD
:101A9000AA0DBB1DFA161B0619F014F04F2D4A1B98
:101AA000511188C0E3FC59C07601A42FB0E2A11106
:101AB0004FC0C40ED11C992309F45BC040E0D6018D
:101AC0001196F60190836D01552309F448C0012F4A
:101AD000060F9A81582F507184FF03C0913309F487
:101AE000015010160CF047C0093008F008E0EEE293
:101AF000FE2E5B01A01AB108850191948194910892
:101B00002F3F320729F4D601FC92F60131966F017E
:101B10006217730794F1021713077CF5DB01A21B10
:101B2000B30BAA24A394B12CAC0EBD1EAA0DBB1DF1
:101B300011968C9121503109D6011196281539053D
:101B4000F4F0F60180836D01DBCFB12CA12CA0CF86
:101B5000F701B1937F01A150AACF9111B0CFD60167
:101B6000942F50E302C05D9391509111FCCFC40EAD
:101B7000D11C40E0ACCF01E0BACF80E3DBCF6217ED
:101B8000730731F4963388F4953311F4552369F0D3
:101B9000F6018083FD01842F90E2811108C0A40F1B
:101BA000B11D1C9290E080E002CF81E3F1CF9193D0
:101BB0008150F3CF911183CF8ACF283008F027E0EE
:101BC0003327DA01990F311D87FD91600096610579
:101BD000710539F432602E5F3D9330E32A95E1F7C9
:101BE00008959F3F30F080387105610509F03C5F32
:101BF0003C5F3D93913008F08068911DDF93CF9357
:101C00001F930F93FF92EF92192F987F9695E92FCC
:101C100096959695E90FFF27EE53FF4F99273327A7
:101C2000EE24FF24A701E70105900894079428F407
:101C3000360FE71EF81E491F511D660F771F881FBC
:101C4000991F0694A1F70590079428F4E70EF81E53
:101C5000491F561FC11D770F881F991F661F0694C5
:101C6000A1F70590079428F4F80E491F561FC71FC7
:101C7000D11D880F991F661F771F0694A1F7059045
:101C8000079420F4490F561FC71FD81F990F661FCE
:101C9000771F881F0694A9F784911095177041F05B
:101CA000D695C79557954795F794E7941A95C1F738
:101CB000E8E6F0E06894159015913591659195915D
:101CC00005907FE27395E118F10A430B560BC90B9F
:101CD000D009C0F7E10CF11E431F561FC91FD01DCC
:101CE0007EF4703311F48A95E6CFE894015030F019
:101CF000080F0AF40027021708F4202F2395022F5B
:101D00007A3328F079E37D932A95E9F710C07D9323
:101D10002A9589F6069497956795379517951794A0
:101D2000E118F10A430B560BC90BD00998F0239523
:101D30007E9173957A3308F070E37C932013B8F7A3
:101D40007E9170617D9330F0839571E37D9370E3B4
:101D50002A95E1F71124EF90FF900F911F91CF91F9
:101D6000DF91992787FD9095089591110C948C0F20
:101D7000803219F089508550C8F70895E89409C059
:101D800097FB3EF490958095709561957F4F8F4FAE
:101D90009F4F9923A9F0F92F96E9BB279395F695C4
:101DA000879577956795B795F111F8CFFAF4BB0F42
:101DB00011F460FF1BC06F5F7F4F8F4F9F4F16C0A6
:101DC000882311F096E911C0772321F09EE8872F30
:101DD000762F05C0662371F096E8862F70E060E0EC
:101DE0002AF09A95660F771F881FDAF7880F969565
:101DF000879597F90895990F0008550FAA0BE0E809
:101E0000FEEF16161706E807F907C0F012161306BC
:101E1000E407F50798F0621B730B840B950B39F4FC
:101E20000A2661F0232B242B252B21F408950A2662
:101E300009F4A140A6958FEF811D811D08950E9490
:101E4000320F0C94A60F0E94980F38F00E949F0F3B
:101E500020F0952311F00C948F0F0C94950F112402
:101E60000C94DA0F0E94B70F70F3959FC1F3950F92
:101E700050E0551F629FF001729FBB27F00DB11D0E
:101E8000639FAA27F00DB11DAA1F649F6627B00D9E
:101E9000A11D661F829F2227B00DA11D621F739F87
:101EA000B00DA11D621F839FA00D611D221F749F95
:101EB0003327A00D611D231F849F600D211D822FDC
:101EC000762F6A2F11249F5750409AF0F1F0882303
:101ED0004AF0EE0FFF1FBB1F661F771F881F915030
:101EE0005040A9F79E3F510580F00C948F0F0C9441
:101EF000DA0F5F3FE4F3983ED4F3869577956795C4
:101F0000B795F795E7959F5FC1F7FE2B880F911D59
:101F10009695879597F9089599278827089597F9B1
:101F20009F6780E870E060E008959FEF80EC08957F
:101F300000240A94161617061806090608950024A8
:101F40000A9412161306140605060895092E039422
:101F5000000C11F4882352F0BB0F40F4BF2B11F496
:101F600060FF04C06F5F7F4F8F4F9F4F089557FDF5
:101F70009058440F551F59F05F3F71F04795880FF7
:101F800097FB991F61F09F3F79F08795089512168E
:101F900013061406551FF2CF4695F1DF08C016163A
:101FA00017061806991FF1CF8695710561050894EB
:101FB0000895E894BB2766277727CB0197F9089502
:101FC000052E97FB1EF400940E94F70F57FD07D0D3
:101FD0000E94361007FC03D04EF40C94F70F509576
:101FE0004095309521953F4F4F4F5F4F0895909505
:101FF0008095709561957F4F8F4F9F4F08952F92D9
:102000003F924F925F926F927F928F929F92AF9288
:10201000BF92CF92DF92EF92FF920F931F93CF93D5
:10202000DF93CDB7DEB7CA1BDB0B0FB6F894DEBF6C
:102030000FBECDBF09942A88398848885F846E8492
:102040007D848C849B84AA84B984C884DF80EE80DC
:10205000FD800C811B81AA81B981CE0FD11D0FB6E5
:10206000F894DEBF0FBECDBFED010895A1E21A2E98
:10207000AA1BBB1BFD010DC0AA1FBB1FEE1FFF1F2C
:10208000A217B307E407F50720F0A21BB30BE40B7C
:10209000F50B661F771F881F991F1A9469F76095C3
:1020A0007095809590959B01AC01BD01CF0108957D
:1020B000A29FB001B39FC001A39F700D811D112489
:1020C000911DB29F700D811D1124911D08955058CE
:1020D000BB27AA270E947F100C94A60F0E94980F7E
:1020E00038F00E949F0F20F039F49F3F19F426F436
:1020F0000C94950F0EF4E095E7FB0C948F0FE92FED
:102100000E94B70F58F3BA17620773078407950741
:1021100020F079F4A6F50C94D90F0EF4E0950B2E6F
:10212000BA2FA02D0B01B90190010C01CA01A00129
:102130001124FF27591B99F0593F50F4503E68F184
:102140001A16F040A22F232F342F4427585FF3CFC5
:10215000469537952795A795F0405395C9F77EF496
:102160001F16BA0B620B730B840BBAF09150A1F0DF
:10217000FF0FBB1F661F771F881FC2F70EC0BA0F65
:10218000621F731F841F48F4879577956795B795ED
:10219000F7959E3F08F0B0CF9395880F08F09927E8
:1021A000EE0F9795879508950E94DB106894B11102
:1021B0000C94DA0F08950E94BF0F88F09F5798F093
:1021C000B92F9927B751B0F0E1F0660F771F881F3C
:1021D000991F1AF0BA95C9F714C0B13091F00E9456
:1021E000D90FB1E008950C94D90F672F782F882765
:1021F000B85F39F0B93FCCF3869577956795B3957D
:10220000D9F73EF490958095709561957F4F8F4FEB
:102210009F4F08950E94FB0E880B990B08950E9412
:102220005810332312F48A1B9B0B0C9419110E9433
:102230005810B7FF0895821B930B0895EE0FFF1FF0
:102240000590F491E02D09940F931F93CF93DF93A2
:102250008230910510F482E090E0E091EE03F0917D
:10226000EF0330E020E0B0E0A0E0309799F42115D2
:10227000310509F44AC0281B390B24303105D8F543
:102280008A819B816115710589F1FB0193838283AA
:10229000FE0111C040815181028113814817590705
:1022A000E0F04817590799F4109761F012960C93D3
:1022B000129713961C933296CF01DF91CF911F9105
:1022C0000F9108950093EE031093EF03F4CF2115BF
:1022D000310551F04217530738F0A901DB019A018B
:1022E000BD01DF01F801C1CFEF01F9CF9093EF03FA
:1022F0008093EE03CDCFFE01E20FF31F8193919304
:102300002250310939832883D7CF2091EC033091B3
:10231000ED03232B41F4209102013091030130930E
:10232000ED032093EC032091000130910101211570
:10233000310541F42DB73EB740910401509105019C
:10234000241B350BE091EC03F091ED03E217F3074A
:10235000A0F42E1B3F0B2817390778F0AC014E5F15
:102360005F4F2417350748F04E0F5F1F5093ED0362
:102370004093EC03819391939FCFF0E0E0E09CCFFA
:10238000CF93DF930097E9F0FC013297138212821A
:10239000A091EE03B091EF03ED0130E020E0109743
:1023A000A1F420813181820F931F2091EC033091A1
:1023B000ED032817390709F061C0F093ED03E093AE
:1023C000EC03DF91CF910895EA01CE17DF07E8F51E
:1023D0004A815B819E0141155105B1F7E901FB83FB
:1023E000EA8349915991C40FD51FEC17FD0761F499
:1023F000808191810296840F951FE90199838883DA
:10240000828193819B838A83F0E0E0E012968D9134
:102410009C9113970097B9F52D913C911197CD019F
:102420000296820F931F2091EC033091ED03281741
:10243000390739F6309751F51092EF031092EE03F9
:10244000B093ED03A093EC03BCCFD383C283408150
:102450005181840F951FC817D90761F44E5F5F4FF4
:1024600088819981480F591F518340838A819B81BC
:10247000938382832115310509F0B0CFF093EF03E8
:10248000E093EE039ECFFD01DC01C0CF13821282E8
:10249000D7CFB0E0A0E0EFE4F2E10C9401108C01A2
:1024A000009751F4CB010E9424118C01C801CDB7D3
:1024B000DEB7E0E10C941D10FC01E60FF71F9C0154
:1024C00022503109E217F30708F49DC0D901CD91DC
:1024D000DC911197C617D70798F0C530D10530F3B6
:1024E000CE0104978617970708F3C61BD70B2297D0
:1024F000C193D1936D937C93CF010E94C011D6CF2D
:102500005B01AC1ABD0A4C018C0E9D1EA091EE031E
:10251000B091EF03512C412CF12CE12C109731F5A7
:102520008091EC039091ED038815990509F05CC04A
:102530004616570608F058C080910001909101019D
:10254000009741F48DB79EB7409104015091050169
:10255000841B950BE817F90708F055C0F093ED03BD
:10256000E093EC03F90171836083A0CF8D919C917E
:10257000119712966C90129713967C901397A8154A
:10258000B90559F56C0142E0C40ED11CCA14DB0434
:1025900020F1AC014A195B09DA011296159780F017
:1025A0006282738251834083D9016D937C93E114DD
:1025B000F10471F0D7011396FC93EE93129776CF46
:1025C00022968C0F9D1FF90191838083F301EFCF39
:1025D000F093EF03E093EE0369CF4816590608F431
:1025E0002C017D01D3019ACFCB010E9424117C01E3
:1025F000009749F0AE01B8010E940613C8010E947D
:10260000C011870153CF10E000E050CFFB01DC0187
:1026100002C001900D9241505040D8F70895FB013F
:10262000DC0101900D920020E1F7089510E0CFED5C
:10263000D0E004C0FE010E941E112196C03ED107C9
:06264000C9F7F894FFCF7A
:102646000000F003800000000000B00407043D0411
:10265600FD046E044C0460040D0A00474554202F07
:102666007570646174653F6B65793D4358425548A2
:1026760050554B394E455755553838266669656C61
:1026860064313D00474554202F7570646174653F81
:102696006B65793D435842554850554B394E455721
:1026A60055553838266669656C64323D0047455491
:1026B600202F7570646174653F6B65793D435842A0
:1026C600554850554B394E45575555383826666945
:1026D600656C64333D0041540D004F4B0041542B53
:1026E60043574D4F44453D330041542B43574A41D0
:1026F600503D22002E2E2E2E2E3F0031303030340B
:10270600353834373745732E004552524F522044E0
:102716004520434F4E4558494F4E2057494649009C
:102726004D4F44554C4F2057494649204E4F205255
:102736004553504F4E44450048756D6564616420AD
:1027460074696572726100204C757A004448547849
:1027560078207465737421004661696C6564207421
:102766006F20726561642066726F6D204448543133
:102776002073656E736F7221004661696C65642013
:10278600746F20726561642066726F6D20444854D0
:10279600322073656E736F72210041542B4349508A
:1027A60053544152543D22544350222C2200313876
:1027B600342E3130362E3135332E31343900222C39
:1027C6003830004552524F520041542B4349505322
:1027D600454E443D003E0041542B434950434C4F27
:1027E600534500434F4D554E49434143494F4E20B3
:1027F6005049534F3100434F4E56455253494F4E61
:10280600204445204441544F53204448543232001A
:10281600434F4D554E49434143494F4E20594C363F
:1028260039205049534F203100434F4E564552539D
:10283600494F4E204445204441544F532044454C73
:0C28460020484947524F4D4554524F0066
:00000001FF
